{
  "_format": "hh3-artifact-1",
  "contractName": "StudyCommitment",
  "sourceName": "contracts/StudyCommitment.sol",
  "abi": [
    {
      "inputs": [
        {
          "internalType": "address",
          "name": "_charityAddress",
          "type": "address"
        }
      ],
      "stateMutability": "nonpayable",
      "type": "constructor"
    },
    {
      "anonymous": false,
      "inputs": [
        {
          "indexed": true,
          "internalType": "address",
          "name": "student",
          "type": "address"
        },
        {
          "indexed": false,
          "internalType": "uint256",
          "name": "stakedAmount",
          "type": "uint256"
        }
      ],
      "name": "SessionCompleted",
      "type": "event"
    },
    {
      "anonymous": false,
      "inputs": [
        {
          "indexed": false,
          "internalType": "address",
          "name": "_charityAddress",
          "type": "address"
        },
        {
          "indexed": false,
          "internalType": "uint256",
          "name": "stakedAmount",
          "type": "uint256"
        }
      ],
      "name": "SessionFailed",
      "type": "event"
    },
    {
      "anonymous": false,
      "inputs": [
        {
          "indexed": true,
          "internalType": "address",
          "name": "student",
          "type": "address"
        },
        {
          "indexed": false,
          "internalType": "uint256",
          "name": "deadline",
          "type": "uint256"
        },
        {
          "indexed": false,
          "internalType": "uint256",
          "name": "stakedAmount",
          "type": "uint256"
        }
      ],
      "name": "SessionStarted",
      "type": "event"
    },
    {
      "inputs": [],
      "name": "challengeCount",
      "outputs": [
        {
          "internalType": "uint256",
          "name": "",
          "type": "uint256"
        }
      ],
      "stateMutability": "view",
      "type": "function"
    },
    {
      "inputs": [
        {
          "internalType": "uint256",
          "name": "",
          "type": "uint256"
        }
      ],
      "name": "challenges",
      "outputs": [
        {
          "internalType": "address",
          "name": "student",
          "type": "address"
        },
        {
          "internalType": "uint256",
          "name": "stakedAmount",
          "type": "uint256"
        },
        {
          "internalType": "uint256",
          "name": "startTime",
          "type": "uint256"
        },
        {
          "internalType": "uint256",
          "name": "deadline",
          "type": "uint256"
        },
        {
          "internalType": "enum StudyCommitment.Status",
          "name": "currentStatus",
          "type": "uint8"
        }
      ],
      "stateMutability": "view",
      "type": "function"
    },
    {
      "inputs": [],
      "name": "charityAddress",
      "outputs": [
        {
          "internalType": "address",
          "name": "",
          "type": "address"
        }
      ],
      "stateMutability": "view",
      "type": "function"
    },
    {
      "inputs": [
        {
          "internalType": "uint256",
          "name": "_challengeId",
          "type": "uint256"
        }
      ],
      "name": "completeSession",
      "outputs": [],
      "stateMutability": "nonpayable",
      "type": "function"
    },
    {
      "inputs": [
        {
          "internalType": "uint256",
          "name": "_duration",
          "type": "uint256"
        }
      ],
      "name": "createSession",
      "outputs": [],
      "stateMutability": "payable",
      "type": "function"
    },
    {
      "inputs": [
        {
          "internalType": "uint256",
          "name": "_challengeId",
          "type": "uint256"
        }
      ],
      "name": "failSession",
      "outputs": [],
      "stateMutability": "nonpayable",
      "type": "function"
    },
    {
      "inputs": [
        {
          "internalType": "uint256",
          "name": "_challengeId",
          "type": "uint256"
        }
      ],
      "name": "getSession",
      "outputs": [
        {
          "components": [
            {
              "internalType": "address",
              "name": "student",
              "type": "address"
            },
            {
              "internalType": "uint256",
              "name": "stakedAmount",
              "type": "uint256"
            },
            {
              "internalType": "uint256",
              "name": "startTime",
              "type": "uint256"
            },
            {
              "internalType": "uint256",
              "name": "deadline",
              "type": "uint256"
            },
            {
              "internalType": "enum StudyCommitment.Status",
              "name": "currentStatus",
              "type": "uint8"
            }
          ],
          "internalType": "struct StudyCommitment.Challenge",
          "name": "",
          "type": "tuple"
        }
      ],
      "stateMutability": "view",
      "type": "function"
    },
    {
      "inputs": [],
      "name": "owner",
      "outputs": [
        {
          "internalType": "address",
          "name": "",
          "type": "address"
        }
      ],
      "stateMutability": "view",
      "type": "function"
    }
  ],
  "bytecode": "0x6080604052348015600e575f5ffd5b506040516109b13803806109b1833981016040819052602b91605d565b60028054336001600160a01b031991821617909155600380549091166001600160a01b03929092169190911790556088565b5f60208284031215606c575f5ffd5b81516001600160a01b03811681146081575f5ffd5b9392505050565b61091c806100955f395ff3fe608060405260043610610079575f3560e01c80638f1d37761161004c5780638f1d377614610129578063a2f057251461018f578063afcf2fc4146101b2578063f847cdde146101d1575f5ffd5b80631f5754c01461007d578063402ff0db1461009e5780636e1dbb5e146100d35780638da5cb5b146100f2575b5f5ffd5b348015610088575f5ffd5b5061009c6100973660046107d1565b6101e4565b005b3480156100a9575f5ffd5b506100bd6100b83660046107d1565b6103f9565b6040516100ca919061081c565b60405180910390f35b3480156100de575f5ffd5b5061009c6100ed3660046107d1565b610484565b3480156100fd575f5ffd5b50600254610111906001600160a01b031681565b6040516001600160a01b0390911681526020016100ca565b348015610134575f5ffd5b5061017e6101433660046107d1565b5f60208190529081526040902080546001820154600283015460038401546004909401546001600160a01b0390931693919290919060ff1685565b6040516100ca959493929190610865565b34801561019a575f5ffd5b506101a460015481565b6040519081526020016100ca565b3480156101bd575f5ffd5b50600354610111906001600160a01b031681565b61009c6101df3660046107d1565b610643565b5f81815260208190526040902080546001600160a01b0316331461024f5760405162461bcd60e51b815260206004820152601f60248201527f4f6e6c792063726561746f722063616e206d61726b20636f6d706c657465210060448201526064015b60405180910390fd5b6001600482015460ff16600381111561026a5761026a6107e8565b146102b75760405162461bcd60e51b815260206004820152601e60248201527f5374617475732073657373696f6e206d757374206265206163746976652100006044820152606401610246565b8060030154421061030a5760405162461bcd60e51b815260206004820152601c60248201527f446561646c696e6520616c7265616479206265656e20706173736564000000006044820152606401610246565b60048101805460ff19166002179055805460018201546040515f926001600160a01b031691908381818185875af1925050503d805f8114610366576040519150601f19603f3d011682016040523d82523d5f602084013e61036b565b606091505b50509050806103ae5760405162461bcd60e51b815260206004820152600f60248201526e151c985b9cd9995c8819985a5b1959608a1b6044820152606401610246565b815460018301546040519081526001600160a01b03909116907f314c29be5bf997e43ebbffd393742605d0b83e3648ae2c25390d36645f4967ab9060200160405180910390a2505050565b61040161078e565b5f8281526020818152604091829020825160a08101845281546001600160a01b0316815260018201549281019290925260028101549282019290925260038083015460608301526004830154919291608084019160ff9091169081111561046a5761046a6107e8565b600381111561047b5761047b6107e8565b90525092915050565b5f8181526020819052604090206001600482015460ff1660038111156104ac576104ac6107e8565b146104f95760405162461bcd60e51b815260206004820152601e60248201527f5374617475732073657373696f6e206d757374206265206163746976652100006044820152606401610246565b8060030154421161054c5760405162461bcd60e51b815260206004820152601860248201527f446561646c696e65206e6f7420706173736564207965742100000000000000006044820152606401610246565b60048101805460ff191660039081179091555460018201546040515f926001600160a01b031691908381818185875af1925050503d805f81146105aa576040519150601f19603f3d011682016040523d82523d5f602084013e6105af565b606091505b50509050806105f25760405162461bcd60e51b815260206004820152600f60248201526e151c985b9cd9995c8819985a5b1959608a1b6044820152606401610246565b6003546001830154604080516001600160a01b03909316835260208301919091527f6930c1f6923d0e1394a04d871e9ff2e370ddd8b14154227fdec3d10a9eba0573910160405180910390a1505050565b6001545f908152602081905260409020346106965760405162461bcd60e51b815260206004820152601360248201527209aeae6e840e6e8c2d6ca40e6dedaca408aa89606b1b6044820152606401610246565b6001600482015460ff1660038111156106b1576106b16107e8565b036106f55760405162461bcd60e51b815260206004820152601460248201527320b63932b0b23c9034b710309039b2b9b9b4b7b760611b6044820152606401610246565b80546001600160a01b03191633178155346001820155426002820181905561071e9083906108b5565b600382015560048101805460ff191660019081179091558054905f610742836108ce565b909155503390507f10db192bda3320a608015a66c352db52ed6407d3fdf9dcb5ac728b8a7ed9b2ee61077484426108b5565b604080519182523460208301520160405180910390a25050565b6040518060a001604052805f6001600160a01b031681526020015f81526020015f81526020015f81526020015f60038111156107cc576107cc6107e8565b905290565b5f602082840312156107e1575f5ffd5b5035919050565b634e487b7160e01b5f52602160045260245ffd5b6004811061081857634e487b7160e01b5f52602160045260245ffd5b9052565b81516001600160a01b0316815260208083015190820152604080830151908201526060808301519082015260808083015160a083019161085e908401826107fc565b5092915050565b6001600160a01b038616815260208101859052604081018490526060810183905260a0810161089760808301846107fc565b9695505050505050565b634e487b7160e01b5f52601160045260245ffd5b808201808211156108c8576108c86108a1565b92915050565b5f600182016108df576108df6108a1565b506001019056fea264697066735822122033510e23e852870ed5811e90003202d31ee708a41f0fd3c687d74718a64ed52764736f6c634300081e0033",
  "linkReferences": {},
  "deployedLinkReferences": {},
  "immutableReferences": {},
  "inputSourceName": "project/contracts/StudyCommitment.sol",
  "buildInfoId": "solc-0_8_30-0c770713a89072199b515ae6fadf4fc8cb095007"
}